{
  "contractName": "Basic223Token",
  "abi": [
    {
      "constant": true,
      "inputs": [],
      "name": "totalSupply",
      "outputs": [
        {
          "name": "",
          "type": "uint256"
        }
      ],
      "payable": false,
      "stateMutability": "view",
      "type": "function"
    },
    {
      "constant": true,
      "inputs": [
        {
          "name": "_owner",
          "type": "address"
        }
      ],
      "name": "balanceOf",
      "outputs": [
        {
          "name": "",
          "type": "uint256"
        }
      ],
      "payable": false,
      "stateMutability": "view",
      "type": "function"
    },
    {
      "anonymous": false,
      "inputs": [
        {
          "indexed": true,
          "name": "_from",
          "type": "address"
        },
        {
          "indexed": true,
          "name": "_to",
          "type": "address"
        },
        {
          "indexed": false,
          "name": "_value",
          "type": "uint256"
        },
        {
          "indexed": true,
          "name": "_data",
          "type": "bytes"
        }
      ],
      "name": "Transfer",
      "type": "event"
    },
    {
      "anonymous": false,
      "inputs": [
        {
          "indexed": true,
          "name": "from",
          "type": "address"
        },
        {
          "indexed": true,
          "name": "to",
          "type": "address"
        },
        {
          "indexed": false,
          "name": "value",
          "type": "uint256"
        }
      ],
      "name": "Transfer",
      "type": "event"
    },
    {
      "constant": false,
      "inputs": [
        {
          "name": "_to",
          "type": "address"
        },
        {
          "name": "_value",
          "type": "uint256"
        }
      ],
      "name": "transfer",
      "outputs": [
        {
          "name": "success",
          "type": "bool"
        }
      ],
      "payable": false,
      "stateMutability": "nonpayable",
      "type": "function"
    },
    {
      "constant": false,
      "inputs": [
        {
          "name": "_to",
          "type": "address"
        },
        {
          "name": "_value",
          "type": "uint256"
        },
        {
          "name": "_data",
          "type": "bytes"
        }
      ],
      "name": "transfer",
      "outputs": [
        {
          "name": "success",
          "type": "bool"
        }
      ],
      "payable": false,
      "stateMutability": "nonpayable",
      "type": "function"
    }
  ],
  "bytecode": "0x608060405234801561001057600080fd5b5061050f806100206000396000f3006080604052600436106100615763ffffffff7c010000000000000000000000000000000000000000000000000000000060003504166318160ddd811461006657806370a082311461008d578063a9059cbb146100bb578063be45fd6214610100575b600080fd5b34801561007257600080fd5b5061007b610176565b60408051918252519081900360200190f35b34801561009957600080fd5b5061007b73ffffffffffffffffffffffffffffffffffffffff6004351661017c565b3480156100c757600080fd5b506100ec73ffffffffffffffffffffffffffffffffffffffff600435166024356101a4565b604080519115158252519081900360200190f35b34801561010c57600080fd5b50604080516020600460443581810135601f81018490048402850184019095528484526100ec94823573ffffffffffffffffffffffffffffffffffffffff169460248035953695946064949201919081908401838280828437509497506101c89650505050505050565b60015490565b73ffffffffffffffffffffffffffffffffffffffff1660009081526020819052604090205490565b604080516000808252602082019092526101c190849084906101c8565b9392505050565b600073ffffffffffffffffffffffffffffffffffffffff841615156101ec57600080fd5b3360009081526020819052604090205483111561020857600080fd5b73ffffffffffffffffffffffffffffffffffffffff841660009081526020819052604090205461023e818563ffffffff61028516565b1161024857600080fd5b6102528484610298565b151561025a57fe5b610263846103a0565b1561027b57610274338585856103a8565b90506101c1565b5060019392505050565b8181018281101561029257fe5b92915050565b600073ffffffffffffffffffffffffffffffffffffffff831615156102bc57600080fd5b336000908152602081905260409020548211156102d857600080fd5b336000908152602081905260409020546102f8908363ffffffff6104d116565b336000908152602081905260408082209290925573ffffffffffffffffffffffffffffffffffffffff851681522054610337908363ffffffff61028516565b73ffffffffffffffffffffffffffffffffffffffff8416600081815260208181526040918290209390935580518581529051919233927fddf252ad1be2c89b69c2b068fc378daa952ba7f163c4a11628f55a4df523b3ef9281900390910190a350600192915050565b6000903b1190565b6040517f4c123019000000000000000000000000000000000000000000000000000000008152336004820181815273ffffffffffffffffffffffffffffffffffffffff878116602485015260448401869052608060648501908152855160848601528551600095899593861694634c12301994938c938b938b93929160a49091019060208501908083838f5b8381101561044c578181015183820152602001610434565b50505050905090810190601f1680156104795780820380516001836020036101000a031916815260200191505b5095505050505050602060405180830381600087803b15801561049b57600080fd5b505af11580156104af573d6000803e3d6000fd5b505050506040513d60208110156104c557600080fd5b50519695505050505050565b6000828211156104dd57fe5b509003905600a165627a7a723058205662cdaaf0b89dcfe26548e494b81dc4c85ab66a0db4f7cb6cd4838e43bd7f7f0029",
  "source": "pragma solidity ^0.4.18;\n\nimport './ERC223Basic.sol';\nimport './ERC223Receiver.sol';\n// import \"./BasicToken.sol\";\nimport \"../../node_modules/openzeppelin-solidity/contracts/token/ERC20/BasicToken.sol\";\n\n/**\n *\n * @title Basic token ERC223\n *        derived from Basic token ERC20\n * @dev see also: https://github.com/ethereum/EIPs/issues/223\n *\n * created by IAM <DEV> (Elky Bachtiar)\n * https://www.iamdeveloper.io\n *\n *\n * file: Basic223Token.sol\n * location: contracts/token/\n *\n*/\ncontract Basic223Token is ERC223Basic, BasicToken {\n\n    /**\n    * @dev transfer token for a specified address\n    * @param _to The address to transfer to.\n    * @param _value The amount to be transferred\n    * @param _data is arbitrary data sent with the token transferFrom. Simulates ether tx.data\n    * @return bool successful or not\n    */\n    function transfer(address _to, uint _value, bytes _data) public returns (bool success) {\n        require(_to != address(0));\n        require(_value <= balances[msg.sender]);\n        require(balances[_to].add(_value) > balances[_to]);  // Detect balance overflow\n\n        assert(super.transfer(_to, _value));               //@dev Save transfer\n\n        if (isContract(_to)){\n            return contractFallback(msg.sender, _to, _value, _data);\n        }\n        return true;\n    }\n\n    /**\n    * @dev transfer token for a specified address\n    * @param _to The address to transfer to.\n    * @param _value The amount to be transferred.\n    */\n    function transfer(address _to, uint256 _value) public returns (bool success) {\n        return transfer(_to, _value, new bytes(0));\n    }\n\n\n    //function that is called when transaction target is a contract\n    function contractFallback(address _origin, address _to, uint _value, bytes _data) internal returns (bool success) {\n        ERC223Receiver reciever = ERC223Receiver(_to);\n        return reciever.tokenFallback(msg.sender, _origin, _value, _data);\n    }\n\n    //assemble the given address bytecode. If bytecode exists then the _addr is a contract.\n    function isContract(address _addr) internal returns (bool is_contract) {\n        // retrieve the size of the code on target address, this needs assembly\n        uint length;\n        assembly { length := extcodesize(_addr) }\n        return length > 0;\n    }\n}\n",
  "sourcePath": "/Users/dominik/Documents/Education/Uni/Master/SS18/Smart_Contracts/Challenges/casino_drizzle/contracts/ERC223/Basic223Token.sol",
  "compiler": {
    "name": "solc",
    "version": "0.4.24+commit.e67f0147.Emscripten.clang"
  },
  "schemaVersion": "2.0.0",
  "updatedAt": "2018-07-05T20:54:40.826Z"
}