{
  "contractName": "Burnable223Token",
  "abi": [
    {
      "constant": true,
      "inputs": [],
      "name": "totalSupply",
      "outputs": [
        {
          "name": "",
          "type": "uint256"
        }
      ],
      "payable": false,
      "stateMutability": "view",
      "type": "function"
    },
    {
      "constant": true,
      "inputs": [
        {
          "name": "_owner",
          "type": "address"
        }
      ],
      "name": "balanceOf",
      "outputs": [
        {
          "name": "",
          "type": "uint256"
        }
      ],
      "payable": false,
      "stateMutability": "view",
      "type": "function"
    },
    {
      "constant": false,
      "inputs": [
        {
          "name": "_to",
          "type": "address"
        },
        {
          "name": "_value",
          "type": "uint256"
        }
      ],
      "name": "transfer",
      "outputs": [
        {
          "name": "success",
          "type": "bool"
        }
      ],
      "payable": false,
      "stateMutability": "nonpayable",
      "type": "function"
    },
    {
      "constant": false,
      "inputs": [
        {
          "name": "_to",
          "type": "address"
        },
        {
          "name": "_value",
          "type": "uint256"
        },
        {
          "name": "_data",
          "type": "bytes"
        }
      ],
      "name": "transfer",
      "outputs": [
        {
          "name": "success",
          "type": "bool"
        }
      ],
      "payable": false,
      "stateMutability": "nonpayable",
      "type": "function"
    },
    {
      "anonymous": false,
      "inputs": [
        {
          "indexed": true,
          "name": "burner",
          "type": "address"
        },
        {
          "indexed": false,
          "name": "value",
          "type": "uint256"
        }
      ],
      "name": "Burn",
      "type": "event"
    },
    {
      "anonymous": false,
      "inputs": [
        {
          "indexed": true,
          "name": "_from",
          "type": "address"
        },
        {
          "indexed": true,
          "name": "_to",
          "type": "address"
        },
        {
          "indexed": false,
          "name": "_value",
          "type": "uint256"
        },
        {
          "indexed": true,
          "name": "_data",
          "type": "bytes"
        }
      ],
      "name": "Transfer",
      "type": "event"
    },
    {
      "anonymous": false,
      "inputs": [
        {
          "indexed": true,
          "name": "from",
          "type": "address"
        },
        {
          "indexed": true,
          "name": "to",
          "type": "address"
        },
        {
          "indexed": false,
          "name": "value",
          "type": "uint256"
        }
      ],
      "name": "Transfer",
      "type": "event"
    },
    {
      "constant": false,
      "inputs": [
        {
          "name": "_value",
          "type": "uint256"
        }
      ],
      "name": "burn",
      "outputs": [],
      "payable": false,
      "stateMutability": "nonpayable",
      "type": "function"
    }
  ],
  "bytecode": "0x608060405234801561001057600080fd5b5061064b806100206000396000f30060806040526004361061006c5763ffffffff7c010000000000000000000000000000000000000000000000000000000060003504166318160ddd811461007157806342966c681461009857806370a08231146100b2578063a9059cbb146100e0578063be45fd6214610125575b600080fd5b34801561007d57600080fd5b5061008661019b565b60408051918252519081900360200190f35b3480156100a457600080fd5b506100b06004356101a1565b005b3480156100be57600080fd5b5061008673ffffffffffffffffffffffffffffffffffffffff600435166102b8565b3480156100ec57600080fd5b5061011173ffffffffffffffffffffffffffffffffffffffff600435166024356102e0565b604080519115158252519081900360200190f35b34801561013157600080fd5b50604080516020600460443581810135601f810184900484028501840190955284845261011194823573ffffffffffffffffffffffffffffffffffffffff169460248035953695946064949201919081908401838280828437509497506103049650505050505050565b60015490565b336000908152602081905260408120548211156101bd57600080fd5b50336000818152602081905260409020546101de908363ffffffff6103c116565b73ffffffffffffffffffffffffffffffffffffffff8216600090815260208190526040902055600154610217908363ffffffff6103c116565b60015560408051838152905173ffffffffffffffffffffffffffffffffffffffff8316917fcc16f5dbb4873280815c1ee09dbd06736cffcc184412cf7a71a0fdb75d397ca5919081900360200190a260408051838152905160009173ffffffffffffffffffffffffffffffffffffffff8416917fddf252ad1be2c89b69c2b068fc378daa952ba7f163c4a11628f55a4df523b3ef9181900360200190a35050565b73ffffffffffffffffffffffffffffffffffffffff1660009081526020819052604090205490565b604080516000808252602082019092526102fd9084908490610304565b9392505050565b600073ffffffffffffffffffffffffffffffffffffffff8416151561032857600080fd5b3360009081526020819052604090205483111561034457600080fd5b73ffffffffffffffffffffffffffffffffffffffff841660009081526020819052604090205461037a818563ffffffff6103d316565b1161038457600080fd5b61038e84846103e6565b151561039657fe5b61039f846104ee565b156103b7576103b0338585856104f6565b90506102fd565b5060019392505050565b6000828211156103cd57fe5b50900390565b818101828110156103e057fe5b92915050565b600073ffffffffffffffffffffffffffffffffffffffff8316151561040a57600080fd5b3360009081526020819052604090205482111561042657600080fd5b33600090815260208190526040902054610446908363ffffffff6103c116565b336000908152602081905260408082209290925573ffffffffffffffffffffffffffffffffffffffff851681522054610485908363ffffffff6103d316565b73ffffffffffffffffffffffffffffffffffffffff8416600081815260208181526040918290209390935580518581529051919233927fddf252ad1be2c89b69c2b068fc378daa952ba7f163c4a11628f55a4df523b3ef9281900390910190a350600192915050565b6000903b1190565b6040517f4c123019000000000000000000000000000000000000000000000000000000008152336004820181815273ffffffffffffffffffffffffffffffffffffffff878116602485015260448401869052608060648501908152855160848601528551600095899593861694634c12301994938c938b938b93929160a49091019060208501908083838f5b8381101561059a578181015183820152602001610582565b50505050905090810190601f1680156105c75780820380516001836020036101000a031916815260200191505b5095505050505050602060405180830381600087803b1580156105e957600080fd5b505af11580156105fd573d6000803e3d6000fd5b505050506040513d602081101561061357600080fd5b505196955050505050505600a165627a7a723058205cbd858af4f91dc92013e7b899f1b40888c04b0acb46ca7439e2b931ad53e1c80029",
  "source": "pragma solidity ^0.4.0;\n\nimport \"./Basic223Token.sol\";\n\ncontract Burnable223Token is Basic223Token {\n    event Burn(address indexed burner, uint256 value);\n\n    /**\n     * @dev Burns a specific amount of tokens.\n     * @param _value The amount of token to be burned.\n     */\n    function burn(uint256 _value) public {\n        require(_value <= balances[msg.sender]);\n        // no need to require value <= totalSupply, since that would imply the\n        // sender's balance is greater than the totalSupply, which *should* be an assertion failure\n\n        address burner = msg.sender;\n        balances[burner] = balances[burner].sub(_value);\n        totalSupply_ = totalSupply_.sub(_value);\n        Burn(burner, _value);\n        Transfer(burner, address(0), _value);\n    }\n}\n",
  "sourcePath": "/Users/dominik/Documents/Education/Uni/Master/SS18/Smart_Contracts/Challenges/casino_drizzle/contracts/ERC223/Burnable223Token.sol",
  "compiler": {
    "name": "solc",
    "version": "0.4.24+commit.e67f0147.Emscripten.clang"
  },
  "schemaVersion": "2.0.0",
  "updatedAt": "2018-07-05T20:54:40.825Z"
}