{
  "contractName": "Casino",
  "abi": [
    {
      "constant": true,
      "inputs": [
        {
          "name": "addr",
          "type": "address"
        },
        {
          "name": "roleName",
          "type": "string"
        }
      ],
      "name": "checkRole",
      "outputs": [],
      "payable": false,
      "stateMutability": "view",
      "type": "function"
    },
    {
      "constant": true,
      "inputs": [
        {
          "name": "addr",
          "type": "address"
        },
        {
          "name": "roleName",
          "type": "string"
        }
      ],
      "name": "hasRole",
      "outputs": [
        {
          "name": "",
          "type": "bool"
        }
      ],
      "payable": false,
      "stateMutability": "view",
      "type": "function"
    },
    {
      "constant": false,
      "inputs": [],
      "name": "renounceOwnership",
      "outputs": [],
      "payable": false,
      "stateMutability": "nonpayable",
      "type": "function"
    },
    {
      "constant": false,
      "inputs": [
        {
          "name": "addr",
          "type": "address"
        },
        {
          "name": "roleName",
          "type": "string"
        }
      ],
      "name": "adminRemoveRole",
      "outputs": [],
      "payable": false,
      "stateMutability": "nonpayable",
      "type": "function"
    },
    {
      "constant": true,
      "inputs": [],
      "name": "owner",
      "outputs": [
        {
          "name": "",
          "type": "address"
        }
      ],
      "payable": false,
      "stateMutability": "view",
      "type": "function"
    },
    {
      "constant": false,
      "inputs": [
        {
          "name": "addr",
          "type": "address"
        },
        {
          "name": "roleName",
          "type": "string"
        }
      ],
      "name": "adminAddRole",
      "outputs": [],
      "payable": false,
      "stateMutability": "nonpayable",
      "type": "function"
    },
    {
      "constant": true,
      "inputs": [],
      "name": "ROLE_ADMIN",
      "outputs": [
        {
          "name": "",
          "type": "string"
        }
      ],
      "payable": false,
      "stateMutability": "view",
      "type": "function"
    },
    {
      "constant": false,
      "inputs": [
        {
          "name": "_newOwner",
          "type": "address"
        }
      ],
      "name": "transferOwnership",
      "outputs": [],
      "payable": false,
      "stateMutability": "nonpayable",
      "type": "function"
    },
    {
      "constant": true,
      "inputs": [],
      "name": "ROLE_DEALER",
      "outputs": [
        {
          "name": "",
          "type": "string"
        }
      ],
      "payable": false,
      "stateMutability": "view",
      "type": "function"
    },
    {
      "inputs": [
        {
          "name": "_chipPrice",
          "type": "uint256"
        }
      ],
      "payable": false,
      "stateMutability": "nonpayable",
      "type": "constructor"
    },
    {
      "payable": true,
      "stateMutability": "payable",
      "type": "fallback"
    },
    {
      "anonymous": false,
      "inputs": [],
      "name": "CasinoOpened",
      "type": "event"
    },
    {
      "anonymous": false,
      "inputs": [],
      "name": "CasinoClosed",
      "type": "event"
    },
    {
      "anonymous": false,
      "inputs": [
        {
          "indexed": false,
          "name": "tableAddr",
          "type": "address"
        }
      ],
      "name": "TableRegistered",
      "type": "event"
    },
    {
      "anonymous": false,
      "inputs": [
        {
          "indexed": true,
          "name": "previousOwner",
          "type": "address"
        }
      ],
      "name": "OwnershipRenounced",
      "type": "event"
    },
    {
      "anonymous": false,
      "inputs": [
        {
          "indexed": true,
          "name": "previousOwner",
          "type": "address"
        },
        {
          "indexed": true,
          "name": "newOwner",
          "type": "address"
        }
      ],
      "name": "OwnershipTransferred",
      "type": "event"
    },
    {
      "anonymous": false,
      "inputs": [
        {
          "indexed": false,
          "name": "addr",
          "type": "address"
        },
        {
          "indexed": false,
          "name": "roleName",
          "type": "string"
        }
      ],
      "name": "RoleAdded",
      "type": "event"
    },
    {
      "anonymous": false,
      "inputs": [
        {
          "indexed": false,
          "name": "addr",
          "type": "address"
        },
        {
          "indexed": false,
          "name": "roleName",
          "type": "string"
        }
      ],
      "name": "RoleRemoved",
      "type": "event"
    },
    {
      "constant": true,
      "inputs": [],
      "name": "getChipSwapAddress",
      "outputs": [
        {
          "name": "",
          "type": "address"
        }
      ],
      "payable": false,
      "stateMutability": "view",
      "type": "function"
    },
    {
      "constant": true,
      "inputs": [],
      "name": "getChipTokenAddress",
      "outputs": [
        {
          "name": "",
          "type": "address"
        }
      ],
      "payable": false,
      "stateMutability": "view",
      "type": "function"
    },
    {
      "constant": false,
      "inputs": [
        {
          "name": "tableAddr",
          "type": "address"
        }
      ],
      "name": "registerTable",
      "outputs": [],
      "payable": false,
      "stateMutability": "nonpayable",
      "type": "function"
    },
    {
      "constant": true,
      "inputs": [],
      "name": "getTableAddress",
      "outputs": [
        {
          "name": "",
          "type": "address"
        }
      ],
      "payable": false,
      "stateMutability": "view",
      "type": "function"
    },
    {
      "constant": true,
      "inputs": [],
      "name": "getChipPrice",
      "outputs": [
        {
          "name": "",
          "type": "uint256"
        }
      ],
      "payable": false,
      "stateMutability": "view",
      "type": "function"
    },
    {
      "constant": false,
      "inputs": [],
      "name": "invest",
      "outputs": [],
      "payable": true,
      "stateMutability": "payable",
      "type": "function"
    },
    {
      "constant": false,
      "inputs": [
        {
          "name": "_sender",
          "type": "address"
        },
        {
          "name": "_origin",
          "type": "address"
        },
        {
          "name": "_value",
          "type": "uint256"
        },
        {
          "name": "_data",
          "type": "bytes"
        }
      ],
      "name": "tokenFallback",
      "outputs": [
        {
          "name": "success",
          "type": "bool"
        }
      ],
      "payable": false,
      "stateMutability": "nonpayable",
      "type": "function"
    },
    {
      "constant": false,
      "inputs": [],
      "name": "registerAsDealer",
      "outputs": [],
      "payable": false,
      "stateMutability": "nonpayable",
      "type": "function"
    },
    {
      "constant": false,
      "inputs": [],
      "name": "becomeDealerForTable",
      "outputs": [],
      "payable": false,
      "stateMutability": "nonpayable",
      "type": "function"
    },
    {
      "constant": true,
      "inputs": [],
      "name": "getTableDealer",
      "outputs": [
        {
          "name": "",
          "type": "address"
        }
      ],
      "payable": false,
      "stateMutability": "view",
      "type": "function"
    },
    {
      "constant": true,
      "inputs": [],
      "name": "getPhase",
      "outputs": [
        {
          "name": "",
          "type": "string"
        }
      ],
      "payable": false,
      "stateMutability": "view",
      "type": "function"
    },
    {
      "constant": false,
      "inputs": [
        {
          "name": "randomNumber",
          "type": "uint256"
        }
      ],
      "name": "startRound",
      "outputs": [],
      "payable": false,
      "stateMutability": "nonpayable",
      "type": "function"
    },
    {
      "constant": false,
      "inputs": [
        {
          "name": "randomNumber",
          "type": "uint256"
        }
      ],
      "name": "closeRound",
      "outputs": [],
      "payable": false,
      "stateMutability": "nonpayable",
      "type": "function"
    },
    {
      "constant": false,
      "inputs": [
        {
          "name": "number",
          "type": "uint256"
        }
      ],
      "name": "reveal",
      "outputs": [],
      "payable": false,
      "stateMutability": "nonpayable",
      "type": "function"
    },
    {
      "constant": true,
      "inputs": [
        {
          "name": "number",
          "type": "uint256"
        }
      ],
      "name": "calcHash",
      "outputs": [
        {
          "name": "",
          "type": "bytes32"
        }
      ],
      "payable": false,
      "stateMutability": "view",
      "type": "function"
    }
  ],
  "bytecode": "0x60806040523480156200001157600080fd5b50604051602080620026508339810160408181529151828201909252600581527f61646d696e00000000000000000000000000000000000000000000000000000060208201526200006d903390640100000000620000d0810204565b60018054600160a060020a03191633179055620000896200022b565b604051809103906000f080158015620000a6573d6000803e3d6000fd5b5060028054600160a060020a031916600160a060020a03929092169190911790556003556200023c565b6200014c826000836040518082805190602001908083835b60208310620001095780518252601f199092019160209182019101620000e8565b51815160209384036101000a6000190180199092169116179052920194855250604051938490030190922092915050640100000000620002068102620016a91704565b7fbfec83d64eaa953f2708271a023ab9ee82057f8f3578d548c1a4ba0b5b70048982826040518083600160a060020a0316600160a060020a0316815260200180602001828103825283818151815260200191508051906020019080838360005b83811015620001c6578181015183820152602001620001ac565b50505050905090810190601f168015620001f45780820380516001836020036101000a031916815260200191505b50935050505060405180910390a15050565b600160a060020a0316600090815260209190915260409020805460ff19166001179055565b604051610d0a806200194683390190565b6116fa806200024c6000396000f30060806040526004361061013d5763ffffffff7c01000000000000000000000000000000000000000000000000000000006000350416630988ca8c811461020a57806313d46d701461027357806321508c9f146102a4578063217fe6c6146102ce5780633121ca12146103495780634320c7d01461035e5780634c123019146103735780635fc3d52d146103e2578063715018a6146103fa57806388cee87e1461040f57806388e01a98146104765780638da5cb5b1461048e5780638fc6d1ea146104a3578063a8d31b1f146104b8578063b02c270f146104d9578063b25fa92c146104ee578063c2ca0ac514610555578063d391014b1461056d578063e3807a38146105f7578063e498b8931461060c578063e8b5e51f14610621578063eced028014610629578063f2fde38b1461063e578063f93a44a11461065f575b60006003543481151561014c57fe5b061561015757600080fd5b60035461016b90349063ffffffff61067416565b600254604080517fa9059cbb000000000000000000000000000000000000000000000000000000008152336004820152602481018490529051929350600160a060020a039091169163a9059cbb916044808201926020929091908290030181600087803b1580156101db57600080fd5b505af11580156101ef573d6000803e3d6000fd5b505050506040513d602081101561020557600080fd5b505050005b34801561021657600080fd5b5060408051602060046024803582810135601f8101859004850286018501909652858552610271958335600160a060020a031695369560449491939091019190819084018382808284375094975061068b9650505050505050565b005b34801561027f57600080fd5b506102886106f9565b60408051600160a060020a039092168252519081900360200190f35b3480156102b057600080fd5b506102bc6004356107b0565b60408051918252519081900360200190f35b3480156102da57600080fd5b5060408051602060046024803582810135601f8101859004850286018501909652858552610335958335600160a060020a03169536956044949193909101919081908401838280828437509497506107c79650505050505050565b604080519115158252519081900360200190f35b34801561035557600080fd5b5061028861083a565b34801561036a57600080fd5b506102bc61083e565b34801561037f57600080fd5b50604080516020601f60643560048181013592830184900484028501840190955281845261033594600160a060020a0381358116956024803590921695604435953695608494019181908401838280828437509497506108449650505050505050565b3480156103ee57600080fd5b50610271600435610920565b34801561040657600080fd5b50610271610a8c565b34801561041b57600080fd5b5060408051602060046024803582810135601f8101859004850286018501909652858552610271958335600160a060020a0316953695604494919390910191908190840183828082843750949750610afa9650505050505050565b34801561048257600080fd5b50610271600435610b43565b34801561049a57600080fd5b50610288610c98565b3480156104af57600080fd5b50610288610ca7565b3480156104c457600080fd5b50610271600160a060020a0360043516610cd3565b3480156104e557600080fd5b50610271610da3565b3480156104fa57600080fd5b5060408051602060046024803582810135601f8101859004850286018501909652858552610271958335600160a060020a0316953695604494919390910191908190840183828082843750949750610de49650505050505050565b34801561056157600080fd5b50610271600435610e2d565b34801561057957600080fd5b50610582610ea4565b6040805160208082528351818301528351919283929083019185019080838360005b838110156105bc5781810151838201526020016105a4565b50505050905090810190601f1680156105e95780820380516001836020036101000a031916815260200191505b509250505060405180910390f35b34801561060357600080fd5b50610288610edb565b34801561061857600080fd5b50610271610eea565b610271610f7a565b34801561063557600080fd5b506105826111ab565b34801561064a57600080fd5b50610271600160a060020a0360043516611350565b34801561066b57600080fd5b50610582611373565b6000818381151561068157fe5b0490505b92915050565b6106f5826000836040518082805190602001908083835b602083106106c15780518252601f1990920191602091820191016106a2565b51815160209384036101000a60001901801990921691161790529201948552506040519384900301909220929150506113aa565b5050565b60006004600081548110151561070b57fe5b9060005260206000200160009054906101000a9004600160a060020a0316600160a060020a031663efe7ab286040518163ffffffff167c0100000000000000000000000000000000000000000000000000000000028152600401602060405180830381600087803b15801561077f57600080fd5b505af1158015610793573d6000803e3d6000fd5b505050506040513d60208110156107a957600080fd5b5051905090565b604080518281529051908190036020019020919050565b6000610833836000846040518082805190602001908083835b602083106107ff5780518252601f1990920191602091820191016107e0565b51815160209384036101000a60001901801990921691161790529201948552506040519384900301909220929150506113bf565b9392505050565b3090565b60035490565b60008061085c600354856113de90919063ffffffff16565b600254604080517f42966c68000000000000000000000000000000000000000000000000000000008152600481018890529051929350600160a060020a03909116916342966c689160248082019260009290919082900301818387803b1580156108c557600080fd5b505af11580156108d9573d6000803e3d6000fd5b5050604051600160a060020a038916925083156108fc02915083906000818181858888f19350505050158015610913573d6000803e3d6000fd5b5060019695505050505050565b60006004600081548110151561093257fe5b9060005260206000200160009054906101000a9004600160a060020a0316600160a060020a031663efe7ab286040518163ffffffff167c0100000000000000000000000000000000000000000000000000000000028152600401602060405180830381600087803b1580156109a657600080fd5b505af11580156109ba573d6000803e3d6000fd5b505050506040513d60208110156109d057600080fd5b5051600160a060020a031633146109e657600080fd5b50604080518281529051908190036020019020600480546000908110610a0857fe5b6000918252602082200154604080517f37404885000000000000000000000000000000000000000000000000000000008152600481018590529051600160a060020a039092169263374048859260248084019382900301818387803b158015610a7057600080fd5b505af1158015610a84573d6000803e3d6000fd5b505050505050565b600154600160a060020a03163314610aa357600080fd5b600154604051600160a060020a03909116907ff8df31144d9c2f0f6b59d69b8b98abd5459d07f2742c4df920b25aae33c6482090600090a26001805473ffffffffffffffffffffffffffffffffffffffff19169055565b610b39336040805190810160405280600581526020017f61646d696e00000000000000000000000000000000000000000000000000000081525061068b565b6106f58282611407565b600480546000908110610b5257fe5b9060005260206000200160009054906101000a9004600160a060020a0316600160a060020a031663efe7ab286040518163ffffffff167c0100000000000000000000000000000000000000000000000000000000028152600401602060405180830381600087803b158015610bc657600080fd5b505af1158015610bda573d6000803e3d6000fd5b505050506040513d6020811015610bf057600080fd5b5051600160a060020a03163314610c0657600080fd5b600480546000908110610c1557fe5b6000918252602082200154604080517f88e01a98000000000000000000000000000000000000000000000000000000008152600481018590529051600160a060020a03909216926388e01a989260248084019382900301818387803b158015610c7d57600080fd5b505af1158015610c91573d6000803e3d6000fd5b5050505050565b600154600160a060020a031681565b600060046000815481101515610cb957fe5b600091825260209091200154600160a060020a0316905090565b610d12336040805190810160405280600581526020017f61646d696e00000000000000000000000000000000000000000000000000000081525061068b565b600480546001810182556000919091527f8a35acfbc15ff81a39ae7d344fd709f28e8600b4aa8c65c6b64bfe7fe36bd19b018054600160a060020a03831673ffffffffffffffffffffffffffffffffffffffff19909116811790915560408051918252517f14846c74e997278b27ebcf00167db5ad1f300db6cd4086f19f93d60af4ae68469181900360200190a150565b610de2336040805190810160405280600681526020017f6465616c65720000000000000000000000000000000000000000000000000000815250610de4565b565b610e23336040805190810160405280600581526020017f61646d696e00000000000000000000000000000000000000000000000000000081525061068b565b6106f58282611528565b600480546000908110610e3c57fe5b6000918252602082200154604080517fc2ca0ac5000000000000000000000000000000000000000000000000000000008152600481018590529051600160a060020a039092169263c2ca0ac59260248084019382900301818387803b158015610c7d57600080fd5b60408051808201909152600581527f61646d696e000000000000000000000000000000000000000000000000000000602082015281565b600254600160a060020a031690565b600480546000908110610ef957fe5b6000918252602082200154604080517f1e665f320000000000000000000000000000000000000000000000000000000081523360048201529051600160a060020a0390921692631e665f329260248084019382900301818387803b158015610f6057600080fd5b505af1158015610f74573d6000803e3d6000fd5b50505050565b600080600080610fbf336040805190810160405280600581526020017f61646d696e00000000000000000000000000000000000000000000000000000081525061068b565b60003411610fcc57600080fd5b60035434811515610fd957fe5b0615610fe457600080fd5b600454600354610ffb90349063ffffffff61067416565b81151561100457fe5b061561100f57600080fd5b60035461102390349063ffffffff61067416565b600254604080517f40c10f19000000000000000000000000000000000000000000000000000000008152306004820152602481018490529051929650600160a060020a03909116916340c10f19916044808201926020929091908290030181600087803b15801561109357600080fd5b505af11580156110a7573d6000803e3d6000fd5b505050506040513d60208110156110bd57600080fd5b50506004546110d390859063ffffffff61067416565b9250600091505b600454821015610f745760048054839081106110f257fe5b6000918252602080832090910154600254604080517fa9059cbb000000000000000000000000000000000000000000000000000000008152600160a060020a0393841660048201819052602482018a90529151919650919092169363a9059cbb9360448084019491939192918390030190829087803b15801561117457600080fd5b505af1158015611188573d6000803e3d6000fd5b505050506040513d602081101561119e57600080fd5b50506001909101906110da565b60606000600460008154811015156111bf57fe5b9060005260206000200160009054906101000a9004600160a060020a0316600160a060020a031663eced02806040518163ffffffff167c0100000000000000000000000000000000000000000000000000000000028152600401602060405180830381600087803b15801561123357600080fd5b505af1158015611247573d6000803e3d6000fd5b505050506040513d602081101561125d57600080fd5b50519050600081600281111561126f57fe5b14156112b05760408051808201909152600c81527f5461626c6520636c6f73656400000000000000000000000000000000000000006020820152915061134c565b60018160028111156112be57fe5b14156112ff5760408051808201909152601681527f506c61796572732063616e20706c6163652062657473000000000000000000006020820152915061134c565b600281600281111561130d57fe5b141561134c576040805190810160405280602081526020017f506c61796572732063616e2072657665616c207468656972206e756d6265727381525091505b5090565b600154600160a060020a0316331461136757600080fd5b61137081611609565b50565b60408051808201909152600681527f6465616c65720000000000000000000000000000000000000000000000000000602082015281565b6113b482826113bf565b15156106f557600080fd5b600160a060020a03166000908152602091909152604090205460ff1690565b60008215156113ef57506000610685565b508181028183828115156113ff57fe5b041461068557fe5b611471826000836040518082805190602001908083835b6020831061143d5780518252601f19909201916020918201910161141e565b51815160209384036101000a6000190180199092169116179052920194855250604051938490030190922092915050611687565b7fd211483f91fc6eff862467f8de606587a30c8fc9981056f051b897a418df803a82826040518083600160a060020a0316600160a060020a0316815260200180602001828103825283818151815260200191508051906020019080838360005b838110156114e95781810151838201526020016114d1565b50505050905090810190601f1680156115165780820380516001836020036101000a031916815260200191505b50935050505060405180910390a15050565b611592826000836040518082805190602001908083835b6020831061155e5780518252601f19909201916020918201910161153f565b51815160209384036101000a60001901801990921691161790529201948552506040519384900301909220929150506116a9565b7fbfec83d64eaa953f2708271a023ab9ee82057f8f3578d548c1a4ba0b5b70048982826040518083600160a060020a0316600160a060020a031681526020018060200182810382528381815181526020019150805190602001908083836000838110156114e95781810151838201526020016114d1565b600160a060020a038116151561161e57600080fd5b600154604051600160a060020a038084169216907f8be0079c531659141344cd1fd0a4f28419497f9722a3daafe3b4186f6b6457e090600090a36001805473ffffffffffffffffffffffffffffffffffffffff1916600160a060020a0392909216919091179055565b600160a060020a0316600090815260209190915260409020805460ff19169055565b600160a060020a0316600090815260209190915260409020805460ff191660011790555600a165627a7a723058206745a74194abef9a527a6cac40d8bea3ce5a29d91d61eed6bcf8806ba23632e200296002805460a060020a60ff021916905560c0604052600a60808190527f436173696e6f436869700000000000000000000000000000000000000000000060a090815261004e91600391906100dd565b506040805180820190915260038082527f43485000000000000000000000000000000000000000000000000000000000006020909201918252610093916004916100dd565b50600060055560006006553480156100aa57600080fd5b5060028054600160a060020a03191633908117909155600654600181905560009182526020829052604090912055610178565b828054600181600116156101000203166002900490600052602060002090601f016020900481019282601f1061011e57805160ff191683800117855561014b565b8280016001018555821561014b579182015b8281111561014b578251825591602001919060010190610130565b5061015792915061015b565b5090565b61017591905b808211156101575760008155600101610161565b90565b610b83806101876000396000f3006080604052600436106100da5763ffffffff7c010000000000000000000000000000000000000000000000000000000060003504166305d2035b81146100df57806306fdde031461010857806318160ddd146101925780632ff2e9dc146101b9578063313ce567146101ce57806340c10f19146101e357806342966c681461020757806370a0823114610221578063715018a6146102425780637d64bcb4146102575780638da5cb5b1461026c57806395d89b411461029d578063a9059cbb146102b2578063be45fd62146102d6578063f2fde38b1461033f575b600080fd5b3480156100eb57600080fd5b506100f4610360565b604080519115158252519081900360200190f35b34801561011457600080fd5b5061011d610381565b6040805160208082528351818301528351919283929083019185019080838360005b8381101561015757818101518382015260200161013f565b50505050905090810190601f1680156101845780820380516001836020036101000a031916815260200191505b509250505060405180910390f35b34801561019e57600080fd5b506101a761040f565b60408051918252519081900360200190f35b3480156101c557600080fd5b506101a7610415565b3480156101da57600080fd5b506101a761041b565b3480156101ef57600080fd5b506100f4600160a060020a0360043516602435610421565b34801561021357600080fd5b5061021f60043561053c565b005b34801561022d57600080fd5b506101a7600160a060020a036004351661062c565b34801561024e57600080fd5b5061021f610647565b34801561026357600080fd5b506100f46106b5565b34801561027857600080fd5b5061028161075b565b60408051600160a060020a039092168252519081900360200190f35b3480156102a957600080fd5b5061011d61076a565b3480156102be57600080fd5b506100f4600160a060020a03600435166024356107c5565b3480156102e257600080fd5b50604080516020600460443581810135601f81018490048402850184019095528484526100f4948235600160a060020a03169460248035953695946064949201919081908401838280828437509497506107e99650505050505050565b34801561034b57600080fd5b5061021f600160a060020a036004351661088c565b60025474010000000000000000000000000000000000000000900460ff1681565b6003805460408051602060026001851615610100026000190190941693909304601f810184900484028201840190925281815292918301828280156104075780601f106103dc57610100808354040283529160200191610407565b820191906000526020600020905b8154815290600101906020018083116103ea57829003601f168201915b505050505081565b60015490565b60065481565b60055481565b600254600090600160a060020a0316331461043b57600080fd5b60025474010000000000000000000000000000000000000000900460ff161561046357600080fd5b600154610476908363ffffffff6108af16565b600155600160a060020a0383166000908152602081905260409020546104a2908363ffffffff6108af16565b600160a060020a03841660008181526020818152604091829020939093558051858152905191927f0f6798a560793a54c3bcfe86a93cde1e73087d944c0ea20544137d412139688592918290030190a2604080518381529051600160a060020a038516916000917fddf252ad1be2c89b69c2b068fc378daa952ba7f163c4a11628f55a4df523b3ef9181900360200190a350600192915050565b3360009081526020819052604081205482111561055857600080fd5b5033600081815260208190526040902054610579908363ffffffff6108c216565b600160a060020a0382166000908152602081905260409020556001546105a5908363ffffffff6108c216565b600155604080518381529051600160a060020a038316917fcc16f5dbb4873280815c1ee09dbd06736cffcc184412cf7a71a0fdb75d397ca5919081900360200190a2604080518381529051600091600160a060020a038416917fddf252ad1be2c89b69c2b068fc378daa952ba7f163c4a11628f55a4df523b3ef9181900360200190a35050565b600160a060020a031660009081526020819052604090205490565b600254600160a060020a0316331461065e57600080fd5b600254604051600160a060020a03909116907ff8df31144d9c2f0f6b59d69b8b98abd5459d07f2742c4df920b25aae33c6482090600090a26002805473ffffffffffffffffffffffffffffffffffffffff19169055565b600254600090600160a060020a031633146106cf57600080fd5b60025474010000000000000000000000000000000000000000900460ff16156106f757600080fd5b6002805474ff00000000000000000000000000000000000000001916740100000000000000000000000000000000000000001790556040517fae5184fba832cb2b1f702aca6117b8d265eaf03ad33eb133f19dde0f5920fa0890600090a150600190565b600254600160a060020a031681565b6004805460408051602060026001851615610100026000190190941693909304601f810184900484028201840190925281815292918301828280156104075780601f106103dc57610100808354040283529160200191610407565b604080516000808252602082019092526107e290849084906107e9565b9392505050565b6000600160a060020a038416151561080057600080fd5b3360009081526020819052604090205483111561081c57600080fd5b600160a060020a038416600090815260208190526040902054610845818563ffffffff6108af16565b1161084f57600080fd5b61085984846108d4565b151561086157fe5b61086a846109b5565b156108825761087b338585856109bd565b90506107e2565b5060019392505050565b600254600160a060020a031633146108a357600080fd5b6108ac81610ad9565b50565b818101828110156108bc57fe5b92915050565b6000828211156108ce57fe5b50900390565b6000600160a060020a03831615156108eb57600080fd5b3360009081526020819052604090205482111561090757600080fd5b33600090815260208190526040902054610927908363ffffffff6108c216565b3360009081526020819052604080822092909255600160a060020a03851681522054610959908363ffffffff6108af16565b600160a060020a038416600081815260208181526040918290209390935580518581529051919233927fddf252ad1be2c89b69c2b068fc378daa952ba7f163c4a11628f55a4df523b3ef9281900390910190a350600192915050565b6000903b1190565b6040517f4c1230190000000000000000000000000000000000000000000000000000000081523360048201818152600160a060020a03878116602485015260448401869052608060648501908152855160848601528551600095899593861694634c12301994938c938b938b93929160a49091019060208501908083838f5b83811015610a54578181015183820152602001610a3c565b50505050905090810190601f168015610a815780820380516001836020036101000a031916815260200191505b5095505050505050602060405180830381600087803b158015610aa357600080fd5b505af1158015610ab7573d6000803e3d6000fd5b505050506040513d6020811015610acd57600080fd5b50519695505050505050565b600160a060020a0381161515610aee57600080fd5b600254604051600160a060020a038084169216907f8be0079c531659141344cd1fd0a4f28419497f9722a3daafe3b4186f6b6457e090600090a36002805473ffffffffffffffffffffffffffffffffffffffff1916600160a060020a03929092169190911790555600a165627a7a723058206e2c6990fc08c556f8c555e1b2f3e95e531a630ad6b17085d90ea49436e799fb0029",
  "source": "pragma solidity ^0.4.23;\n\nimport \"./CasinoToken.sol\";\nimport \"./Table.sol\";\nimport \"./RBACWithAdmin.sol\";\n\ncontract Casino is RBACWithAdmin, Ownable {\n    using SafeMath for uint;\n\n    event CasinoOpened();\n    event CasinoClosed();\n\n    string public constant ROLE_DEALER = \"dealer\";\n\n    modifier onlyCasinoOwner() {\n        checkRole(msg.sender, ROLE_ADMIN);\n        _;\n    }\n\n    modifier onlyDealer() {\n        checkRole(msg.sender, ROLE_DEALER);\n        _;\n    }\n\n    CasinoToken private chipTokenContract;\n    uint256 chipPrice;\n\n    // For simplicity the chipToken address and chipPrice cannot be changed after deploying the casino.\n    // We would have to recalculate the token amount and redistribute them after changing the price, since we need enough liquidity to swap tokens back into ether.\n    constructor (uint256 _chipPrice) public {\n        chipTokenContract = new CasinoToken();\n        chipPrice = _chipPrice;\n    }\n\n    function getChipSwapAddress() external view returns (address) {\n        return address(this);\n    }\n\n    function getChipTokenAddress() external view returns (address) {\n        return address(chipTokenContract);\n    }\n\n    event TableRegistered(address tableAddr);\n\n    Table[] tables;\n\n    // The owner must ensure that the contract code of Tables he deploys is correct.\n    // This gets called by the truffle deployment script.\n    function registerTable(address tableAddr) external onlyCasinoOwner {\n        tables.push(Table(tableAddr));\n        emit TableRegistered(tableAddr);\n    }\n\n    function getTableAddress() view external returns(address) {\n        return address(tables[0]); // For simplicity we assume that only one table is registered.\n    }\n\n    function getChipPrice() external view returns(uint256) {\n        return chipPrice;\n    }\n\n    // Invest in the casino. Tokens will be minted depending on the amount of ether you send.\n    // Players can buy these tokens and use them to play at our casino.\n    function invest() external onlyCasinoOwner payable {\n        require(msg.value > 0);\n        require(msg.value % chipPrice == 0);\n        require((msg.value.div(chipPrice)) % tables.length == 0); // We want to distribute tokens equally among all tables.\n\n        // Mint tokens and distribute them equally among our tables.\n\n        uint256 amount = msg.value.div(chipPrice);\n        chipTokenContract.mint(this, amount);\n\n        uint256 amountPerTable = amount.div(tables.length);\n        for (uint256 i = 0; i < tables.length; i++) {\n            Table table = tables[i];\n            chipTokenContract.transfer(address(table), amountPerTable);\n        }\n    }\n\n    // Buy chips by sending ether to the casino. No tips allowed at our casino, therefore the value must be a multiple of the chip price.    \n    function () public payable {\n        require(msg.value % chipPrice == 0);\n\n        uint256 amount = msg.value.div(chipPrice);\n        chipTokenContract.transfer(msg.sender, amount);\n    }\n\n    // Swap casino chips back to ether.\n    function tokenFallback(address _sender, address _origin, uint256 _value, bytes _data) public returns (bool success) {\n        uint256 wai = _value.mul(chipPrice);\n        chipTokenContract.burn(_value);\n        _sender.transfer(wai);\n        \n        return true;\n    }\n\n    function registerAsDealer() public {\n        adminAddRole(msg.sender, ROLE_DEALER);\n    }\n\n    // HELPER METHODS for Drizzle (to simplify UI development for the demo)\n    // ALL OF THE FOLLOWING METHODS SHOULD BE IMPLEMENTED IN THE UI.\n    // ALSO WE ASSUME THAT THERE IS ONLY ONE REGISTERED TABLE.\n\n    function becomeDealerForTable() external {\n        tables[0].setDealer(msg.sender);\n    }\n\n    function getTableDealer() view external returns (address) {\n        return tables[0].getDealerAddress();\n    }\n\n    function getPhase() view external returns (string) {\n        Table.Phase phase = tables[0].getPhase();\n        if (phase == Table.Phase.STOPPED) {\n            return \"Table closed\";\n        } else if (phase == Table.Phase.COMMIT) {\n            return \"Players can place bets\";\n        } else if (phase == Table.Phase.REVEAL) {\n            return \"Players can reveal their numbers\";\n        }\n    }\n\n    function startRound(uint256 randomNumber) external {\n        require(msg.sender == tables[0].getDealerAddress());\n        \n        bytes32 hash = keccak256(randomNumber); // THIS SHOULD BE DONE IN THE UI.\n        tables[0].startRound(hash);\n    }\n\n    function closeRound(uint256 randomNumber) external {\n        require(msg.sender == tables[0].getDealerAddress());\n\n        tables[0].closeRound(randomNumber);\n    }\n\n    function reveal(uint256 number) external {\n        tables[0].reveal(number);\n    }\n\n    function calcHash(uint256 number) view external returns (bytes32) {\n        return keccak256(number); // THIS SHOULD BE DONE IN THE UI.\n    }\n}",
  "sourcePath": "/Users/dominik/Documents/Education/Uni/Master/SS18/Smart_Contracts/Challenges/casino_drizzle/contracts/Casino.sol",
  "compiler": {
    "name": "solc",
    "version": "0.4.24+commit.e67f0147.Emscripten.clang"
  },
  "schemaVersion": "2.0.0",
  "updatedAt": "2018-07-05T21:49:11.701Z"
}