{
  "contractName": "CasinoToken",
  "abi": [
    {
      "constant": true,
      "inputs": [],
      "name": "mintingFinished",
      "outputs": [
        {
          "name": "",
          "type": "bool"
        }
      ],
      "payable": false,
      "stateMutability": "view",
      "type": "function"
    },
    {
      "constant": true,
      "inputs": [],
      "name": "name",
      "outputs": [
        {
          "name": "",
          "type": "string"
        }
      ],
      "payable": false,
      "stateMutability": "view",
      "type": "function"
    },
    {
      "constant": true,
      "inputs": [],
      "name": "totalSupply",
      "outputs": [
        {
          "name": "",
          "type": "uint256"
        }
      ],
      "payable": false,
      "stateMutability": "view",
      "type": "function"
    },
    {
      "constant": true,
      "inputs": [],
      "name": "INITIAL_SUPPLY",
      "outputs": [
        {
          "name": "",
          "type": "uint256"
        }
      ],
      "payable": false,
      "stateMutability": "view",
      "type": "function"
    },
    {
      "constant": true,
      "inputs": [],
      "name": "decimals",
      "outputs": [
        {
          "name": "",
          "type": "uint256"
        }
      ],
      "payable": false,
      "stateMutability": "view",
      "type": "function"
    },
    {
      "constant": false,
      "inputs": [
        {
          "name": "_to",
          "type": "address"
        },
        {
          "name": "_amount",
          "type": "uint256"
        }
      ],
      "name": "mint",
      "outputs": [
        {
          "name": "",
          "type": "bool"
        }
      ],
      "payable": false,
      "stateMutability": "nonpayable",
      "type": "function"
    },
    {
      "constant": false,
      "inputs": [
        {
          "name": "_value",
          "type": "uint256"
        }
      ],
      "name": "burn",
      "outputs": [],
      "payable": false,
      "stateMutability": "nonpayable",
      "type": "function"
    },
    {
      "constant": true,
      "inputs": [
        {
          "name": "_owner",
          "type": "address"
        }
      ],
      "name": "balanceOf",
      "outputs": [
        {
          "name": "",
          "type": "uint256"
        }
      ],
      "payable": false,
      "stateMutability": "view",
      "type": "function"
    },
    {
      "constant": false,
      "inputs": [],
      "name": "renounceOwnership",
      "outputs": [],
      "payable": false,
      "stateMutability": "nonpayable",
      "type": "function"
    },
    {
      "constant": false,
      "inputs": [],
      "name": "finishMinting",
      "outputs": [
        {
          "name": "",
          "type": "bool"
        }
      ],
      "payable": false,
      "stateMutability": "nonpayable",
      "type": "function"
    },
    {
      "constant": true,
      "inputs": [],
      "name": "owner",
      "outputs": [
        {
          "name": "",
          "type": "address"
        }
      ],
      "payable": false,
      "stateMutability": "view",
      "type": "function"
    },
    {
      "constant": true,
      "inputs": [],
      "name": "symbol",
      "outputs": [
        {
          "name": "",
          "type": "string"
        }
      ],
      "payable": false,
      "stateMutability": "view",
      "type": "function"
    },
    {
      "constant": false,
      "inputs": [
        {
          "name": "_to",
          "type": "address"
        },
        {
          "name": "_value",
          "type": "uint256"
        }
      ],
      "name": "transfer",
      "outputs": [
        {
          "name": "success",
          "type": "bool"
        }
      ],
      "payable": false,
      "stateMutability": "nonpayable",
      "type": "function"
    },
    {
      "constant": false,
      "inputs": [
        {
          "name": "_to",
          "type": "address"
        },
        {
          "name": "_value",
          "type": "uint256"
        },
        {
          "name": "_data",
          "type": "bytes"
        }
      ],
      "name": "transfer",
      "outputs": [
        {
          "name": "success",
          "type": "bool"
        }
      ],
      "payable": false,
      "stateMutability": "nonpayable",
      "type": "function"
    },
    {
      "constant": false,
      "inputs": [
        {
          "name": "_newOwner",
          "type": "address"
        }
      ],
      "name": "transferOwnership",
      "outputs": [],
      "payable": false,
      "stateMutability": "nonpayable",
      "type": "function"
    },
    {
      "inputs": [],
      "payable": false,
      "stateMutability": "nonpayable",
      "type": "constructor"
    },
    {
      "anonymous": false,
      "inputs": [
        {
          "indexed": true,
          "name": "burner",
          "type": "address"
        },
        {
          "indexed": false,
          "name": "value",
          "type": "uint256"
        }
      ],
      "name": "Burn",
      "type": "event"
    },
    {
      "anonymous": false,
      "inputs": [
        {
          "indexed": true,
          "name": "to",
          "type": "address"
        },
        {
          "indexed": false,
          "name": "amount",
          "type": "uint256"
        }
      ],
      "name": "Mint",
      "type": "event"
    },
    {
      "anonymous": false,
      "inputs": [],
      "name": "MintFinished",
      "type": "event"
    },
    {
      "anonymous": false,
      "inputs": [
        {
          "indexed": true,
          "name": "previousOwner",
          "type": "address"
        }
      ],
      "name": "OwnershipRenounced",
      "type": "event"
    },
    {
      "anonymous": false,
      "inputs": [
        {
          "indexed": true,
          "name": "previousOwner",
          "type": "address"
        },
        {
          "indexed": true,
          "name": "newOwner",
          "type": "address"
        }
      ],
      "name": "OwnershipTransferred",
      "type": "event"
    },
    {
      "anonymous": false,
      "inputs": [
        {
          "indexed": true,
          "name": "_from",
          "type": "address"
        },
        {
          "indexed": true,
          "name": "_to",
          "type": "address"
        },
        {
          "indexed": false,
          "name": "_value",
          "type": "uint256"
        },
        {
          "indexed": true,
          "name": "_data",
          "type": "bytes"
        }
      ],
      "name": "Transfer",
      "type": "event"
    },
    {
      "anonymous": false,
      "inputs": [
        {
          "indexed": true,
          "name": "from",
          "type": "address"
        },
        {
          "indexed": true,
          "name": "to",
          "type": "address"
        },
        {
          "indexed": false,
          "name": "value",
          "type": "uint256"
        }
      ],
      "name": "Transfer",
      "type": "event"
    }
  ],
  "bytecode": "0x6002805460a060020a60ff021916905560c0604052600a60808190527f436173696e6f436869700000000000000000000000000000000000000000000060a090815261004e91600391906100dd565b506040805180820190915260038082527f43485000000000000000000000000000000000000000000000000000000000006020909201918252610093916004916100dd565b50600060055560006006553480156100aa57600080fd5b5060028054600160a060020a03191633908117909155600654600181905560009182526020829052604090912055610178565b828054600181600116156101000203166002900490600052602060002090601f016020900481019282601f1061011e57805160ff191683800117855561014b565b8280016001018555821561014b579182015b8281111561014b578251825591602001919060010190610130565b5061015792915061015b565b5090565b61017591905b808211156101575760008155600101610161565b90565b610b83806101876000396000f3006080604052600436106100da5763ffffffff7c010000000000000000000000000000000000000000000000000000000060003504166305d2035b81146100df57806306fdde031461010857806318160ddd146101925780632ff2e9dc146101b9578063313ce567146101ce57806340c10f19146101e357806342966c681461020757806370a0823114610221578063715018a6146102425780637d64bcb4146102575780638da5cb5b1461026c57806395d89b411461029d578063a9059cbb146102b2578063be45fd62146102d6578063f2fde38b1461033f575b600080fd5b3480156100eb57600080fd5b506100f4610360565b604080519115158252519081900360200190f35b34801561011457600080fd5b5061011d610381565b6040805160208082528351818301528351919283929083019185019080838360005b8381101561015757818101518382015260200161013f565b50505050905090810190601f1680156101845780820380516001836020036101000a031916815260200191505b509250505060405180910390f35b34801561019e57600080fd5b506101a761040f565b60408051918252519081900360200190f35b3480156101c557600080fd5b506101a7610415565b3480156101da57600080fd5b506101a761041b565b3480156101ef57600080fd5b506100f4600160a060020a0360043516602435610421565b34801561021357600080fd5b5061021f60043561053c565b005b34801561022d57600080fd5b506101a7600160a060020a036004351661062c565b34801561024e57600080fd5b5061021f610647565b34801561026357600080fd5b506100f46106b5565b34801561027857600080fd5b5061028161075b565b60408051600160a060020a039092168252519081900360200190f35b3480156102a957600080fd5b5061011d61076a565b3480156102be57600080fd5b506100f4600160a060020a03600435166024356107c5565b3480156102e257600080fd5b50604080516020600460443581810135601f81018490048402850184019095528484526100f4948235600160a060020a03169460248035953695946064949201919081908401838280828437509497506107e99650505050505050565b34801561034b57600080fd5b5061021f600160a060020a036004351661088c565b60025474010000000000000000000000000000000000000000900460ff1681565b6003805460408051602060026001851615610100026000190190941693909304601f810184900484028201840190925281815292918301828280156104075780601f106103dc57610100808354040283529160200191610407565b820191906000526020600020905b8154815290600101906020018083116103ea57829003601f168201915b505050505081565b60015490565b60065481565b60055481565b600254600090600160a060020a0316331461043b57600080fd5b60025474010000000000000000000000000000000000000000900460ff161561046357600080fd5b600154610476908363ffffffff6108af16565b600155600160a060020a0383166000908152602081905260409020546104a2908363ffffffff6108af16565b600160a060020a03841660008181526020818152604091829020939093558051858152905191927f0f6798a560793a54c3bcfe86a93cde1e73087d944c0ea20544137d412139688592918290030190a2604080518381529051600160a060020a038516916000917fddf252ad1be2c89b69c2b068fc378daa952ba7f163c4a11628f55a4df523b3ef9181900360200190a350600192915050565b3360009081526020819052604081205482111561055857600080fd5b5033600081815260208190526040902054610579908363ffffffff6108c216565b600160a060020a0382166000908152602081905260409020556001546105a5908363ffffffff6108c216565b600155604080518381529051600160a060020a038316917fcc16f5dbb4873280815c1ee09dbd06736cffcc184412cf7a71a0fdb75d397ca5919081900360200190a2604080518381529051600091600160a060020a038416917fddf252ad1be2c89b69c2b068fc378daa952ba7f163c4a11628f55a4df523b3ef9181900360200190a35050565b600160a060020a031660009081526020819052604090205490565b600254600160a060020a0316331461065e57600080fd5b600254604051600160a060020a03909116907ff8df31144d9c2f0f6b59d69b8b98abd5459d07f2742c4df920b25aae33c6482090600090a26002805473ffffffffffffffffffffffffffffffffffffffff19169055565b600254600090600160a060020a031633146106cf57600080fd5b60025474010000000000000000000000000000000000000000900460ff16156106f757600080fd5b6002805474ff00000000000000000000000000000000000000001916740100000000000000000000000000000000000000001790556040517fae5184fba832cb2b1f702aca6117b8d265eaf03ad33eb133f19dde0f5920fa0890600090a150600190565b600254600160a060020a031681565b6004805460408051602060026001851615610100026000190190941693909304601f810184900484028201840190925281815292918301828280156104075780601f106103dc57610100808354040283529160200191610407565b604080516000808252602082019092526107e290849084906107e9565b9392505050565b6000600160a060020a038416151561080057600080fd5b3360009081526020819052604090205483111561081c57600080fd5b600160a060020a038416600090815260208190526040902054610845818563ffffffff6108af16565b1161084f57600080fd5b61085984846108d4565b151561086157fe5b61086a846109b5565b156108825761087b338585856109bd565b90506107e2565b5060019392505050565b600254600160a060020a031633146108a357600080fd5b6108ac81610ad9565b50565b818101828110156108bc57fe5b92915050565b6000828211156108ce57fe5b50900390565b6000600160a060020a03831615156108eb57600080fd5b3360009081526020819052604090205482111561090757600080fd5b33600090815260208190526040902054610927908363ffffffff6108c216565b3360009081526020819052604080822092909255600160a060020a03851681522054610959908363ffffffff6108af16565b600160a060020a038416600081815260208181526040918290209390935580518581529051919233927fddf252ad1be2c89b69c2b068fc378daa952ba7f163c4a11628f55a4df523b3ef9281900390910190a350600192915050565b6000903b1190565b6040517f4c1230190000000000000000000000000000000000000000000000000000000081523360048201818152600160a060020a03878116602485015260448401869052608060648501908152855160848601528551600095899593861694634c12301994938c938b938b93929160a49091019060208501908083838f5b83811015610a54578181015183820152602001610a3c565b50505050905090810190601f168015610a815780820380516001836020036101000a031916815260200191505b5095505050505050602060405180830381600087803b158015610aa357600080fd5b505af1158015610ab7573d6000803e3d6000fd5b505050506040513d6020811015610acd57600080fd5b50519695505050505050565b600160a060020a0381161515610aee57600080fd5b600254604051600160a060020a038084169216907f8be0079c531659141344cd1fd0a4f28419497f9722a3daafe3b4186f6b6457e090600090a36002805473ffffffffffffffffffffffffffffffffffffffff1916600160a060020a03929092169190911790555600a165627a7a723058206e2c6990fc08c556f8c555e1b2f3e95e531a630ad6b17085d90ea49436e799fb0029",
  "source": "pragma solidity ^0.4.23;\n\nimport \"./ERC223/Mintable223Token.sol\";\nimport \"./ERC223/Burnable223Token.sol\";\n\ncontract CasinoToken is Mintable223Token, Burnable223Token {\n  string public name = \"CasinoChip\";\n  string public symbol = \"CHP\";\n  uint public decimals = 0;\n  uint public INITIAL_SUPPLY = 0;\n\n  constructor() public {\n    totalSupply_ = INITIAL_SUPPLY;\n    balances[msg.sender] = INITIAL_SUPPLY;\n  }\n}\n",
  "sourcePath": "/Users/dominik/Documents/Education/Uni/Master/SS18/Smart_Contracts/Challenges/casino_drizzle/contracts/CasinoToken.sol",
  "compiler": {
    "name": "solc",
    "version": "0.4.24+commit.e67f0147.Emscripten.clang"
  },
  "schemaVersion": "2.0.0",
  "updatedAt": "2018-07-05T20:54:40.823Z"
}