{
  "contractName": "Mintable223Token",
  "abi": [
    {
      "constant": true,
      "inputs": [],
      "name": "mintingFinished",
      "outputs": [
        {
          "name": "",
          "type": "bool"
        }
      ],
      "payable": false,
      "stateMutability": "view",
      "type": "function"
    },
    {
      "constant": true,
      "inputs": [],
      "name": "totalSupply",
      "outputs": [
        {
          "name": "",
          "type": "uint256"
        }
      ],
      "payable": false,
      "stateMutability": "view",
      "type": "function"
    },
    {
      "constant": true,
      "inputs": [
        {
          "name": "_owner",
          "type": "address"
        }
      ],
      "name": "balanceOf",
      "outputs": [
        {
          "name": "",
          "type": "uint256"
        }
      ],
      "payable": false,
      "stateMutability": "view",
      "type": "function"
    },
    {
      "constant": false,
      "inputs": [],
      "name": "renounceOwnership",
      "outputs": [],
      "payable": false,
      "stateMutability": "nonpayable",
      "type": "function"
    },
    {
      "constant": true,
      "inputs": [],
      "name": "owner",
      "outputs": [
        {
          "name": "",
          "type": "address"
        }
      ],
      "payable": false,
      "stateMutability": "view",
      "type": "function"
    },
    {
      "constant": false,
      "inputs": [
        {
          "name": "_to",
          "type": "address"
        },
        {
          "name": "_value",
          "type": "uint256"
        }
      ],
      "name": "transfer",
      "outputs": [
        {
          "name": "success",
          "type": "bool"
        }
      ],
      "payable": false,
      "stateMutability": "nonpayable",
      "type": "function"
    },
    {
      "constant": false,
      "inputs": [
        {
          "name": "_to",
          "type": "address"
        },
        {
          "name": "_value",
          "type": "uint256"
        },
        {
          "name": "_data",
          "type": "bytes"
        }
      ],
      "name": "transfer",
      "outputs": [
        {
          "name": "success",
          "type": "bool"
        }
      ],
      "payable": false,
      "stateMutability": "nonpayable",
      "type": "function"
    },
    {
      "constant": false,
      "inputs": [
        {
          "name": "_newOwner",
          "type": "address"
        }
      ],
      "name": "transferOwnership",
      "outputs": [],
      "payable": false,
      "stateMutability": "nonpayable",
      "type": "function"
    },
    {
      "anonymous": false,
      "inputs": [
        {
          "indexed": true,
          "name": "to",
          "type": "address"
        },
        {
          "indexed": false,
          "name": "amount",
          "type": "uint256"
        }
      ],
      "name": "Mint",
      "type": "event"
    },
    {
      "anonymous": false,
      "inputs": [],
      "name": "MintFinished",
      "type": "event"
    },
    {
      "anonymous": false,
      "inputs": [
        {
          "indexed": true,
          "name": "previousOwner",
          "type": "address"
        }
      ],
      "name": "OwnershipRenounced",
      "type": "event"
    },
    {
      "anonymous": false,
      "inputs": [
        {
          "indexed": true,
          "name": "previousOwner",
          "type": "address"
        },
        {
          "indexed": true,
          "name": "newOwner",
          "type": "address"
        }
      ],
      "name": "OwnershipTransferred",
      "type": "event"
    },
    {
      "anonymous": false,
      "inputs": [
        {
          "indexed": true,
          "name": "_from",
          "type": "address"
        },
        {
          "indexed": true,
          "name": "_to",
          "type": "address"
        },
        {
          "indexed": false,
          "name": "_value",
          "type": "uint256"
        },
        {
          "indexed": true,
          "name": "_data",
          "type": "bytes"
        }
      ],
      "name": "Transfer",
      "type": "event"
    },
    {
      "anonymous": false,
      "inputs": [
        {
          "indexed": true,
          "name": "from",
          "type": "address"
        },
        {
          "indexed": true,
          "name": "to",
          "type": "address"
        },
        {
          "indexed": false,
          "name": "value",
          "type": "uint256"
        }
      ],
      "name": "Transfer",
      "type": "event"
    },
    {
      "constant": false,
      "inputs": [
        {
          "name": "_to",
          "type": "address"
        },
        {
          "name": "_amount",
          "type": "uint256"
        }
      ],
      "name": "mint",
      "outputs": [
        {
          "name": "",
          "type": "bool"
        }
      ],
      "payable": false,
      "stateMutability": "nonpayable",
      "type": "function"
    },
    {
      "constant": false,
      "inputs": [],
      "name": "finishMinting",
      "outputs": [
        {
          "name": "",
          "type": "bool"
        }
      ],
      "payable": false,
      "stateMutability": "nonpayable",
      "type": "function"
    }
  ],
  "bytecode": "0x608060405260028054600160a860020a03191633179055610886806100256000396000f3006080604052600436106100a35763ffffffff7c010000000000000000000000000000000000000000000000000000000060003504166305d2035b81146100a857806318160ddd146100d157806340c10f19146100f857806370a082311461011c578063715018a61461013d5780637d64bcb4146101545780638da5cb5b14610169578063a9059cbb1461019a578063be45fd62146101be578063f2fde38b14610227575b600080fd5b3480156100b457600080fd5b506100bd610248565b604080519115158252519081900360200190f35b3480156100dd57600080fd5b506100e6610269565b60408051918252519081900360200190f35b34801561010457600080fd5b506100bd600160a060020a036004351660243561026f565b34801561012857600080fd5b506100e6600160a060020a036004351661038a565b34801561014957600080fd5b506101526103a5565b005b34801561016057600080fd5b506100bd610413565b34801561017557600080fd5b5061017e6104b9565b60408051600160a060020a039092168252519081900360200190f35b3480156101a657600080fd5b506100bd600160a060020a03600435166024356104c8565b3480156101ca57600080fd5b50604080516020600460443581810135601f81018490048402850184019095528484526100bd948235600160a060020a03169460248035953695946064949201919081908401838280828437509497506104ec9650505050505050565b34801561023357600080fd5b50610152600160a060020a036004351661058f565b60025474010000000000000000000000000000000000000000900460ff1681565b60015490565b600254600090600160a060020a0316331461028957600080fd5b60025474010000000000000000000000000000000000000000900460ff16156102b157600080fd5b6001546102c4908363ffffffff6105b216565b600155600160a060020a0383166000908152602081905260409020546102f0908363ffffffff6105b216565b600160a060020a03841660008181526020818152604091829020939093558051858152905191927f0f6798a560793a54c3bcfe86a93cde1e73087d944c0ea20544137d412139688592918290030190a2604080518381529051600160a060020a038516916000917fddf252ad1be2c89b69c2b068fc378daa952ba7f163c4a11628f55a4df523b3ef9181900360200190a350600192915050565b600160a060020a031660009081526020819052604090205490565b600254600160a060020a031633146103bc57600080fd5b600254604051600160a060020a03909116907ff8df31144d9c2f0f6b59d69b8b98abd5459d07f2742c4df920b25aae33c6482090600090a26002805473ffffffffffffffffffffffffffffffffffffffff19169055565b600254600090600160a060020a0316331461042d57600080fd5b60025474010000000000000000000000000000000000000000900460ff161561045557600080fd5b6002805474ff00000000000000000000000000000000000000001916740100000000000000000000000000000000000000001790556040517fae5184fba832cb2b1f702aca6117b8d265eaf03ad33eb133f19dde0f5920fa0890600090a150600190565b600254600160a060020a031681565b604080516000808252602082019092526104e590849084906104ec565b9392505050565b6000600160a060020a038416151561050357600080fd5b3360009081526020819052604090205483111561051f57600080fd5b600160a060020a038416600090815260208190526040902054610548818563ffffffff6105b216565b1161055257600080fd5b61055c84846105c5565b151561056457fe5b61056d846106a6565b156105855761057e338585856106ae565b90506104e5565b5060019392505050565b600254600160a060020a031633146105a657600080fd5b6105af816107ca565b50565b818101828110156105bf57fe5b92915050565b6000600160a060020a03831615156105dc57600080fd5b336000908152602081905260409020548211156105f857600080fd5b33600090815260208190526040902054610618908363ffffffff61084816565b3360009081526020819052604080822092909255600160a060020a0385168152205461064a908363ffffffff6105b216565b600160a060020a038416600081815260208181526040918290209390935580518581529051919233927fddf252ad1be2c89b69c2b068fc378daa952ba7f163c4a11628f55a4df523b3ef9281900390910190a350600192915050565b6000903b1190565b6040517f4c1230190000000000000000000000000000000000000000000000000000000081523360048201818152600160a060020a03878116602485015260448401869052608060648501908152855160848601528551600095899593861694634c12301994938c938b938b93929160a49091019060208501908083838f5b8381101561074557818101518382015260200161072d565b50505050905090810190601f1680156107725780820380516001836020036101000a031916815260200191505b5095505050505050602060405180830381600087803b15801561079457600080fd5b505af11580156107a8573d6000803e3d6000fd5b505050506040513d60208110156107be57600080fd5b50519695505050505050565b600160a060020a03811615156107df57600080fd5b600254604051600160a060020a038084169216907f8be0079c531659141344cd1fd0a4f28419497f9722a3daafe3b4186f6b6457e090600090a36002805473ffffffffffffffffffffffffffffffffffffffff1916600160a060020a0392909216919091179055565b60008282111561085457fe5b509003905600a165627a7a723058209f995d64f72d0a131d72ff4e7d15c934b543069643150fbacf114ecaa11d47e00029",
  "source": "pragma solidity ^0.4.18;\n\nimport \"./Basic223Token.sol\";\nimport \"../../node_modules/openzeppelin-solidity/contracts/ownership/Ownable.sol\";\n\n/**\n * @title Mintable token\n * @dev Basic ERC223 Token example, with mintable token creation\n * @dev Issue: * https://github.com/OpenZeppelin/zeppelin-solidity/issues/120\n * Based on code by TokenMarketNet: https://github.com/TokenMarketNet/ico/blob/master/contracts/MintableToken.sol\n */\ncontract Mintable223Token is Basic223Token, Ownable {\n    event Mint(address indexed to, uint256 amount);\n    event MintFinished();\n\n    bool public mintingFinished = false;\n\n\n    modifier canMint() {\n        require(!mintingFinished);\n        _;\n    }\n\n    /**\n     * @dev Function to mint tokens\n     * @param _to The address that will receive the minted tokens.\n     * @param _amount The amount of tokens to mint.\n     * @return A boolean that indicates if the operation was successful.\n     */\n    function mint(address _to, uint256 _amount) onlyOwner canMint public returns (bool) {\n        totalSupply_ = totalSupply_.add(_amount);\n        balances[_to] = balances[_to].add(_amount);\n        Mint(_to, _amount);\n        Transfer(address(0), _to, _amount);\n        return true;\n    }\n\n    /**\n     * @dev Function to stop minting new tokens.\n     * @return True if the operation was successful.\n     */\n    function finishMinting() onlyOwner canMint public returns (bool) {\n        mintingFinished = true;\n        MintFinished();\n        return true;\n    }\n}\n",
  "sourcePath": "/Users/dominik/Documents/Education/Uni/Master/SS18/Smart_Contracts/Challenges/casino_drizzle/contracts/ERC223/Mintable223Token.sol",
  "compiler": {
    "name": "solc",
    "version": "0.4.24+commit.e67f0147.Emscripten.clang"
  },
  "schemaVersion": "2.0.0",
  "updatedAt": "2018-07-05T20:54:40.827Z"
}