{
  "contractName": "RBACWithAdmin",
  "abi": [
    {
      "constant": true,
      "inputs": [
        {
          "name": "addr",
          "type": "address"
        },
        {
          "name": "roleName",
          "type": "string"
        }
      ],
      "name": "checkRole",
      "outputs": [],
      "payable": false,
      "stateMutability": "view",
      "type": "function"
    },
    {
      "constant": true,
      "inputs": [
        {
          "name": "addr",
          "type": "address"
        },
        {
          "name": "roleName",
          "type": "string"
        }
      ],
      "name": "hasRole",
      "outputs": [
        {
          "name": "",
          "type": "bool"
        }
      ],
      "payable": false,
      "stateMutability": "view",
      "type": "function"
    },
    {
      "constant": true,
      "inputs": [],
      "name": "ROLE_ADMIN",
      "outputs": [
        {
          "name": "",
          "type": "string"
        }
      ],
      "payable": false,
      "stateMutability": "view",
      "type": "function"
    },
    {
      "inputs": [],
      "payable": false,
      "stateMutability": "nonpayable",
      "type": "constructor"
    },
    {
      "anonymous": false,
      "inputs": [
        {
          "indexed": false,
          "name": "addr",
          "type": "address"
        },
        {
          "indexed": false,
          "name": "roleName",
          "type": "string"
        }
      ],
      "name": "RoleAdded",
      "type": "event"
    },
    {
      "anonymous": false,
      "inputs": [
        {
          "indexed": false,
          "name": "addr",
          "type": "address"
        },
        {
          "indexed": false,
          "name": "roleName",
          "type": "string"
        }
      ],
      "name": "RoleRemoved",
      "type": "event"
    },
    {
      "constant": false,
      "inputs": [
        {
          "name": "addr",
          "type": "address"
        },
        {
          "name": "roleName",
          "type": "string"
        }
      ],
      "name": "adminAddRole",
      "outputs": [],
      "payable": false,
      "stateMutability": "nonpayable",
      "type": "function"
    },
    {
      "constant": false,
      "inputs": [
        {
          "name": "addr",
          "type": "address"
        },
        {
          "name": "roleName",
          "type": "string"
        }
      ],
      "name": "adminRemoveRole",
      "outputs": [],
      "payable": false,
      "stateMutability": "nonpayable",
      "type": "function"
    }
  ],
  "bytecode": "0x608060405234801561001057600080fd5b5061005f336040805190810160405280600581526020017f61646d696e000000000000000000000000000000000000000000000000000000815250610064640100000000026401000000009004565b6101b7565b6100db826000836040518082805190602001908083835b6020831061009a5780518252601f19909201916020918201910161007b565b51815160209384036101000a600019018019909216911617905292019485525060405193849003019092209291505064010000000061019281026107311704565b7fbfec83d64eaa953f2708271a023ab9ee82057f8f3578d548c1a4ba0b5b70048982826040518083600160a060020a0316600160a060020a0316815260200180602001828103825283818151815260200191508051906020019080838360005b8381101561015357818101518382015260200161013b565b50505050905090810190601f1680156101805780820380516001836020036101000a031916815260200191505b50935050505060405180910390a15050565b600160a060020a0316600090815260209190915260409020805460ff19166001179055565b61078f806101c66000396000f30060806040526004361061006c5763ffffffff7c01000000000000000000000000000000000000000000000000000000006000350416630988ca8c8114610071578063217fe6c6146100e757806388cee87e1461016f578063b25fa92c146101e3578063d391014b14610257575b600080fd5b34801561007d57600080fd5b5060408051602060046024803582810135601f81018590048502860185019096528585526100e595833573ffffffffffffffffffffffffffffffffffffffff169536956044949193909101919081908401838280828437509497506102e19650505050505050565b005b3480156100f357600080fd5b5060408051602060046024803582810135601f810185900485028601850190965285855261015b95833573ffffffffffffffffffffffffffffffffffffffff1695369560449491939091019190819084018382808284375094975061034f9650505050505050565b604080519115158252519081900360200190f35b34801561017b57600080fd5b5060408051602060046024803582810135601f81018590048502860185019096528585526100e595833573ffffffffffffffffffffffffffffffffffffffff169536956044949193909101919081908401838280828437509497506103c29650505050505050565b3480156101ef57600080fd5b5060408051602060046024803582810135601f81018590048502860185019096528585526100e595833573ffffffffffffffffffffffffffffffffffffffff1695369560449491939091019190819084018382808284375094975061040b9650505050505050565b34801561026357600080fd5b5061026c610454565b6040805160208082528351818301528351919283929083019185019080838360005b838110156102a657818101518382015260200161028e565b50505050905090810190601f1680156102d35780820380516001836020036101000a031916815260200191505b509250505060405180910390f35b61034b826000836040518082805190602001908083835b602083106103175780518252601f1990920191602091820191016102f8565b51815160209384036101000a600019018019909216911617905292019485525060405193849003019092209291505061048b565b5050565b60006103bb836000846040518082805190602001908083835b602083106103875780518252601f199092019160209182019101610368565b51815160209384036101000a60001901801990921691161790529201948552506040519384900301909220929150506104a0565b9392505050565b610401336040805190810160405280600581526020017f61646d696e0000000000000000000000000000000000000000000000000000008152506102e1565b61034b82826104cc565b61044a336040805190810160405280600581526020017f61646d696e0000000000000000000000000000000000000000000000000000008152506102e1565b61034b8282610607565b60408051808201909152600581527f61646d696e000000000000000000000000000000000000000000000000000000602082015281565b61049582826104a0565b151561034b57600080fd5b73ffffffffffffffffffffffffffffffffffffffff166000908152602091909152604090205460ff1690565b610536826000836040518082805190602001908083835b602083106105025780518252601f1990920191602091820191016104e3565b51815160209384036101000a6000190180199092169116179052920194855250604051938490030190922092915050610702565b7fd211483f91fc6eff862467f8de606587a30c8fc9981056f051b897a418df803a8282604051808373ffffffffffffffffffffffffffffffffffffffff1673ffffffffffffffffffffffffffffffffffffffff16815260200180602001828103825283818151815260200191508051906020019080838360005b838110156105c85781810151838201526020016105b0565b50505050905090810190601f1680156105f55780820380516001836020036101000a031916815260200191505b50935050505060405180910390a15050565b610671826000836040518082805190602001908083835b6020831061063d5780518252601f19909201916020918201910161061e565b51815160209384036101000a6000190180199092169116179052920194855250604051938490030190922092915050610731565b7fbfec83d64eaa953f2708271a023ab9ee82057f8f3578d548c1a4ba0b5b7004898282604051808373ffffffffffffffffffffffffffffffffffffffff1673ffffffffffffffffffffffffffffffffffffffff1681526020018060200182810382528381815181526020019150805190602001908083836000838110156105c85781810151838201526020016105b0565b73ffffffffffffffffffffffffffffffffffffffff16600090815260209190915260409020805460ff19169055565b73ffffffffffffffffffffffffffffffffffffffff16600090815260209190915260409020805460ff191660011790555600a165627a7a72305820e062e6f85cd5e40c73000ff569b2362622db9f7705ab31bcc9ba522a263e1b320029",
  "source": "pragma solidity ^0.4.24;\n\nimport \"openzeppelin-solidity/contracts/ownership/rbac/RBAC.sol\";\n\n/**\n * @title RBACWithAdmin\n * @author Matt Condon (@Shrugs)\n * @dev It's recommended that you define constants in the contract,\n * like ROLE_ADMIN below, to avoid typos.\n * @notice RBACWithAdmin is probably too expansive and powerful for your\n * application; an admin is actually able to change any address to any role\n * which is a very large API surface. It's recommended that you follow a strategy\n * of strictly defining the abilities of your roles\n * and the API-surface of your contract.\n * This is just an example for example's sake.\n */\ncontract RBACWithAdmin is RBAC {\n  /**\n   * A constant role name for indicating admins.\n   */\n  string public constant ROLE_ADMIN = \"admin\";\n\n  /**\n   * @dev modifier to scope access to admins\n   * // reverts\n   */\n  modifier onlyAdmin()\n  {\n    checkRole(msg.sender, ROLE_ADMIN);\n    _;\n  }\n\n  /**\n   * @dev constructor. Sets msg.sender as admin by default\n   */\n  constructor()\n    public\n  {\n    addRole(msg.sender, ROLE_ADMIN);\n  }\n\n  /**\n   * @dev add a role to an address\n   * @param addr address\n   * @param roleName the name of the role\n   */\n  function adminAddRole(address addr, string roleName)\n    onlyAdmin\n    public\n  {\n    addRole(addr, roleName);\n  }\n\n  /**\n   * @dev remove a role from an address\n   * @param addr address\n   * @param roleName the name of the role\n   */\n  function adminRemoveRole(address addr, string roleName)\n    onlyAdmin\n    public\n  {\n    removeRole(addr, roleName);\n  }\n}",
  "sourcePath": "/Users/dominik/Documents/Education/Uni/Master/SS18/Smart_Contracts/Challenges/casino_drizzle/contracts/RBACWithAdmin.sol",
  "compiler": {
    "name": "solc",
    "version": "0.4.24+commit.e67f0147.Emscripten.clang"
  },
  "schemaVersion": "2.0.0",
  "updatedAt": "2018-07-05T20:54:40.829Z"
}