{
  "contractName": "Table",
  "abi": [
    {
      "constant": true,
      "inputs": [],
      "name": "winning",
      "outputs": [
        {
          "name": "",
          "type": "uint8"
        }
      ],
      "payable": false,
      "stateMutability": "view",
      "type": "function"
    },
    {
      "inputs": [
        {
          "name": "casinoAddr",
          "type": "address"
        },
        {
          "name": "_chipTokenContractAddr",
          "type": "address"
        }
      ],
      "payable": false,
      "stateMutability": "nonpayable",
      "type": "constructor"
    },
    {
      "constant": false,
      "inputs": [],
      "name": "getWinning",
      "outputs": [
        {
          "name": "",
          "type": "uint8"
        }
      ],
      "payable": false,
      "stateMutability": "nonpayable",
      "type": "function"
    },
    {
      "constant": false,
      "inputs": [
        {
          "name": "_dealerAddr",
          "type": "address"
        }
      ],
      "name": "setDealer",
      "outputs": [],
      "payable": false,
      "stateMutability": "nonpayable",
      "type": "function"
    },
    {
      "constant": false,
      "inputs": [],
      "name": "getDealerAddress",
      "outputs": [
        {
          "name": "",
          "type": "address"
        }
      ],
      "payable": false,
      "stateMutability": "nonpayable",
      "type": "function"
    },
    {
      "constant": false,
      "inputs": [],
      "name": "getPhase",
      "outputs": [
        {
          "name": "",
          "type": "uint8"
        }
      ],
      "payable": false,
      "stateMutability": "nonpayable",
      "type": "function"
    },
    {
      "constant": false,
      "inputs": [
        {
          "name": "hash",
          "type": "bytes32"
        }
      ],
      "name": "startRound",
      "outputs": [],
      "payable": false,
      "stateMutability": "nonpayable",
      "type": "function"
    },
    {
      "constant": false,
      "inputs": [
        {
          "name": "number",
          "type": "uint256"
        }
      ],
      "name": "closeRound",
      "outputs": [],
      "payable": false,
      "stateMutability": "nonpayable",
      "type": "function"
    },
    {
      "constant": false,
      "inputs": [
        {
          "name": "number",
          "type": "uint256"
        }
      ],
      "name": "reveal",
      "outputs": [],
      "payable": false,
      "stateMutability": "nonpayable",
      "type": "function"
    },
    {
      "constant": false,
      "inputs": [
        {
          "name": "_sender",
          "type": "address"
        },
        {
          "name": "_origin",
          "type": "address"
        },
        {
          "name": "_value",
          "type": "uint256"
        },
        {
          "name": "_data",
          "type": "bytes"
        }
      ],
      "name": "tokenFallback",
      "outputs": [
        {
          "name": "success",
          "type": "bool"
        }
      ],
      "payable": false,
      "stateMutability": "nonpayable",
      "type": "function"
    }
  ],
  "bytecode": "0x60806040526000805460ff19908116825560058054909116905560065534801561002857600080fd5b50604051604080610ba483398101604052805160209091015160078054600160a060020a03938416600160a060020a03199182161790915560098054939092169216919091179055610b258061007f6000396000f3006080604052600436106100985763ffffffff7c01000000000000000000000000000000000000000000000000000000006000350416631e665f32811461009d57806337404885146100cd5780634c123019146100e5578063646775a814610175578063853a1b90146101a057806388e01a98146101b5578063c2ca0ac5146101cd578063eced0280146101e5578063efe7ab281461021e575b600080fd5b3480156100a957600080fd5b506100cb73ffffffffffffffffffffffffffffffffffffffff6004351661025c565b005b3480156100d957600080fd5b506100cb6004356102bc565b3480156100f157600080fd5b50604080516020601f6064356004818101359283018490048402850184019095528184526101619473ffffffffffffffffffffffffffffffffffffffff81358116956024803590921695604435953695608494019181908401838280828437509497506103409650505050505050565b604080519115158252519081900360200190f35b34801561018157600080fd5b5061018a61049f565b6040805160ff9092168252519081900360200190f35b3480156101ac57600080fd5b5061018a6104a8565b3480156101c157600080fd5b506100cb6004356104b1565b3480156101d957600080fd5b506100cb6004356106e5565b3480156101f157600080fd5b506101fa610809565b6040518082600281111561020a57fe5b60ff16815260200191505060405180910390f35b34801561022a57600080fd5b50610233610812565b6040805173ffffffffffffffffffffffffffffffffffffffff9092168252519081900360200190f35b60075473ffffffffffffffffffffffffffffffffffffffff16331461028057600080fd5b6008805473ffffffffffffffffffffffffffffffffffffffff191673ffffffffffffffffffffffffffffffffffffffff92909216919091179055565b60075473ffffffffffffffffffffffffffffffffffffffff1633146102e057600080fd5b600260005460ff1660028111156102f357fe5b148061030e57506000805460ff16600281111561030c57fe5b145b151561031957600080fd5b6000600655610326610856565b61032e610994565b600a556000805460ff19166001179055565b6009546000908190819073ffffffffffffffffffffffffffffffffffffffff163314156103705760019250610495565b600160005460ff16600281111561038357fe5b1461038d57600080fd5b600654600954604080517f70a082310000000000000000000000000000000000000000000000000000000081523060048201529051600290930294508792859273ffffffffffffffffffffffffffffffffffffffff16916370a082319160248083019260209291908290030181600087803b15801561040b57600080fd5b505af115801561041f573d6000803e3d6000fd5b505050506040513d602081101561043557600080fd5b505103101561044357600080fd5b61044e8460006109cb565b905080151561045c57600080fd5b60008181526001602052604090205461047b908663ffffffff610a5916565b5060065461048f908663ffffffff610a5916565b50600192505b5050949350505050565b60055460ff1690565b60055460ff1681565b60075460009081908190819073ffffffffffffffffffffffffffffffffffffffff1633146104de57600080fd5b600260005460ff1660028111156104f157fe5b146104fb57600080fd5b604080518681529051908190036020019020600a541461051a57600080fd5b600480546001810182556000919091527f8a35acfbc15ff81a39ae7d344fd709f28e8600b4aa8c65c6b64bfe7fe36bd19b018590556003610559610a6c565b81151561056257fe5b6005805460ff19169290910660ff9081169290921790819055166002146106d45760055460ff166000908152600360205260408120945092505b83548310156106d45783838154811015156105b357fe5b600091825260208083209091015473ffffffffffffffffffffffffffffffffffffffff168083526002918290526040909220549193506105f9919063ffffffff610aca16565b600954604080517fa9059cbb00000000000000000000000000000000000000000000000000000000815273ffffffffffffffffffffffffffffffffffffffff868116600483015260248201859052915193945091169163a9059cbb916044808201926020929091908290030181600087803b15801561067757600080fd5b505af115801561068b573d6000803e3d6000fd5b505050506040513d60208110156106a157600080fd5b505073ffffffffffffffffffffffffffffffffffffffff821660009081526002602052604081205560019092019161059c565b50506000805460ff19169055505050565b600080600260005460ff1660028111156106fb57fe5b1461070557600080fd5b604080518481526c01000000000000000000000000330260208083019190915282519182900360340190912060008181526001909252918120549193501061074c57600080fd5b61075583610af3565b60ff8116600090815260036020908152604080832080546001818101835591855283852001805473ffffffffffffffffffffffffffffffffffffffff191633908117909155878552908352818420549084526002909252909120549192506107c3919063ffffffff610a5916565b5050600090815260016020819052604082208290556004805491820181559091527f8a35acfbc15ff81a39ae7d344fd709f28e8600b4aa8c65c6b64bfe7fe36bd19b0155565b60005460ff1690565b60075460009073ffffffffffffffffffffffffffffffffffffffff16331461083957600080fd5b5060085473ffffffffffffffffffffffffffffffffffffffff1690565b6000805b6000805260036020527f3617319a054d772f909f7c479a2cebe5066e836a939412e32403c99029b92eff548210156108f4576000805260036020527f3617319a054d772f909f7c479a2cebe5066e836a939412e32403c99029b92eff8054839081106108c257fe5b6000918252602090912001805473ffffffffffffffffffffffffffffffffffffffff191690556001919091019061085a565b5060005b600160005260036020527fa15bc60c955c405d20d9149c709e2460f1c2d9a497496a7f46004d1772c3054c5481101561099057600160005260036020527fa15bc60c955c405d20d9149c709e2460f1c2d9a497496a7f46004d1772c3054c80548290811061096257fe5b6000918252602090912001805473ffffffffffffffffffffffffffffffffffffffff191690556001016108f8565b5050565b60015b60045460ff821610156109c8576004805460ff83169081106109b557fe5b6000918252602082200155600101610997565b50565b600080805b6020811015610a515780600802858286018151811015156109ed57fe5b60209101015160029190910a7f0100000000000000000000000000000000000000000000000000000000000000918290049091027fff00000000000000000000000000000000000000000000000000000000000000160491909117906001016109d0565b509392505050565b81810182811015610a6657fe5b92915050565b600080600060046000815481101515610a8157fe5b90600052602060002001549150600190505b600454811015610ac4576004805482908110610aab57fe5b6000918252602090912001549190911890600101610a93565b50919050565b6000821515610adb57506000610a66565b50818102818382811515610aeb57fe5b0414610a6657fe5b600116905600a165627a7a7230582016d1786939255a8318c964c76f25d139f91cf7a937b1b7d50512a2e0bfd4219b0029",
  "source": "pragma solidity ^0.4.23;\n\nimport \"./Casino.sol\";\nimport \"./CasinoToken.sol\";\nimport \"../node_modules/openzeppelin-solidity/contracts/math/SafeMath.sol\";\nimport \"./ERC223/ERC223Receiver.sol\";\n\ncontract Table is ERC223Receiver {\n    using SafeMath for uint256;\n\n    enum Phase { STOPPED, COMMIT, REVEAL }\n    \n    Phase private phase = Phase.STOPPED;\n\n    mapping(bytes32 => uint256) tokenAmountByHash;\n    mapping(address => uint256) tokenAmountByPlayer;\n    mapping(uint8 => address[]) playersByBet;\n    uint256[] private revealedNumbers;\n\n    uint8 public winning = 0; // 0 == undecided\n\n    uint256 private tokensOnTable = 0;\n\n    function getWinning() external returns(uint8) {\n        return winning;\n    }\n\n    modifier onlyCasino() {\n        require(msg.sender == address(casino));\n        _;\n    }\n\n    Casino private casino;\n\n    constructor(address casinoAddr, address _chipTokenContractAddr) public {\n        casino = Casino(casinoAddr);\n        chipTokenContract = CasinoToken(_chipTokenContractAddr);\n    }\n\n    address private dealerAddr;\n\n    function setDealer(address _dealerAddr) onlyCasino external {\n        dealerAddr = _dealerAddr;\n    }\n\n    function getDealerAddress() onlyCasino external returns (address) {\n        return dealerAddr;\n    }\n\n    CasinoToken private chipTokenContract;\n\n    function getPhase() external returns (Phase) {\n        return phase;\n    }\n\n    bytes32 dealerHash;\n\n    function startRound(bytes32 hash) external onlyCasino { // onlyDealer\n        require(phase == Phase.REVEAL || phase == Phase.STOPPED);\n\n        tokensOnTable = 0;\n        \n        // Reset playersByBet\n        resetPlayersByBet();\n\n        // Reset revealedNumbers\n        resetRevealedNumbers();\n\n        dealerHash = hash;\n\n        phase = Phase.COMMIT;\n    }\n\n    function resetPlayersByBet() private {\n        for (uint256 i1 = 0; i1 < playersByBet[0].length; i1++) {\n            delete playersByBet[0][i1];\n        }\n        for (uint256 i2 = 0; i2 < playersByBet[1].length; i2++) {\n            delete playersByBet[1][i2];\n        }\n    }\n\n    function resetRevealedNumbers() private {\n        for (uint8 i = 1; i < revealedNumbers.length; i++) {\n            delete revealedNumbers[i];\n        }\n    }\n\n    function closeRound(uint256 number) external onlyCasino { // onlyDealer\n        require(phase == Phase.REVEAL);\n        require(dealerHash == keccak256(number));\n\n        revealedNumbers.push(number);\n\n        // Calculate winning.\n        // 2 ... Casino wins.\n        winning = uint8(random() % 3);\n        if (winning != 2) {\n            address[] storage winners = playersByBet[winning];\n            // Payout.\n            for (uint256 i = 0; i < winners.length; i++) {\n                address winner = winners[i];\n                uint256 amount = tokenAmountByPlayer[winner].mul(2); // Winners get twice the tokens they betted.\n                chipTokenContract.transfer(winner, amount);\n                tokenAmountByPlayer[winner] = 0;\n            }\n        } else {\n            // Casino wins.\n            // The dealer will get 1% of the casino's earnings. This is an incentive for him to play fair (make more money for the casino).\n            // TODO transfer 1% of the tokens to the dealer, the rest to the casino.\n        }\n\n        phase = Phase.STOPPED;\n    }\n    \n    function random() private view returns (uint256) {\n        uint256 randomNumber = revealedNumbers[0];\n        for (uint256 i = 1; i < revealedNumbers.length; i++) {\n            randomNumber ^= revealedNumbers[i];\n        }\n        return randomNumber;\n    }\n\n    // Users can reveal their number during any reveal phase (not neccesarily the one following the COMMIT phase in which they sent their tokens).\n    function reveal(uint256 number) external {\n        require(phase == Phase.REVEAL);\n\n        bytes32 hash = keccak256(number, msg.sender);\n\n        // Make sure the user bet on the number and has not reveald the number before.\n        require(tokenAmountByHash[hash] > 0);\n\n        // Used for payout after the winning side has been determined.\n        uint8 bet = numberToBet(number);\n        playersByBet[bet].push(msg.sender);\n        tokenAmountByPlayer[msg.sender].add(tokenAmountByHash[hash]);\n        \n        // Prevents any second reveal for the same hash.\n        tokenAmountByHash[hash] = 0;\n\n        // Used for randomization.\n        revealedNumbers.push(number);\n    }\n\n    function numberToBet(uint256 number) private view returns (uint8) {\n        return uint8(number % 2);\n    }\n\n    // A player sends CAS tokens together with a hash as _data. The hash must be kekacc256(number, msg.sender). Number will be taken modulo 3 to get the actual betting value.\n    // A player can bet on as many numbers as he likes.\n    function tokenFallback(address _sender, address _origin, uint256 _value, bytes _data) public returns (bool success) {\n        // Supply table with tokens.\n        if (msg.sender == address(chipTokenContract)) {\n            return true;\n        }\n\n        // User bets. Only allowed in COMMIT phase.\n        require(phase == Phase.COMMIT);\n\n        // Check whether we can pay in case the player wins.\n        uint256 maxPayout = tokensOnTable * 2; // Amount of tokens we have to pay to the players if all player win.\n        require(chipTokenContract.balanceOf(address(this)) - maxPayout >= _value);\n\n        bytes32 hash = bytesToBytes32(_data, 0);\n        require(hash != 0);\n\n        tokenAmountByHash[hash].add(_value);\n        tokensOnTable.add(_value);\n\n        return true;\n    }\n\n    function bytesToBytes32(bytes b, uint offset) private pure returns (bytes32) {\n        bytes32 out;\n        for (uint i = 0; i < 32; i++) {\n            out |= bytes32(b[offset + i] & 0xFF) >> (i * 8);\n        }\n        return out;\n    }\n}",
  "sourcePath": "/Users/dominik/Documents/Education/Uni/Master/SS18/Smart_Contracts/Challenges/casino_drizzle/contracts/Table.sol",
  "compiler": {
    "name": "solc",
    "version": "0.4.24+commit.e67f0147.Emscripten.clang"
  },
  "schemaVersion": "2.0.0",
  "updatedAt": "2018-07-05T21:49:11.690Z"
}